{
  "_format": "hh-sol-artifact-1",
  "contractName": "EventTicketing",
  "sourceName": "contracts/EventTicketing.sol",
  "abi": [
    {
      "inputs": [
        {
          "internalType": "address",
          "name": "ticketNftAddress",
          "type": "address"
        },
        {
          "internalType": "address payable",
          "name": "feeRecipient_",
          "type": "address"
        },
        {
          "internalType": "uint16",
          "name": "feeBps",
          "type": "uint16"
        }
      ],
      "stateMutability": "nonpayable",
      "type": "constructor"
    },
    {
      "inputs": [],
      "name": "AlreadyRegistered",
      "type": "error"
    },
    {
      "inputs": [],
      "name": "EventCanceled",
      "type": "error"
    },
    {
      "inputs": [],
      "name": "EventClosed",
      "type": "error"
    },
    {
      "inputs": [],
      "name": "EventNotCanceled",
      "type": "error"
    },
    {
      "inputs": [],
      "name": "EventNotFound",
      "type": "error"
    },
    {
      "inputs": [],
      "name": "EventNotPassed",
      "type": "error"
    },
    {
      "inputs": [],
      "name": "EventStarted",
      "type": "error"
    },
    {
      "inputs": [],
      "name": "InvalidCall",
      "type": "error"
    },
    {
      "inputs": [],
      "name": "InvalidDescription",
      "type": "error"
    },
    {
      "inputs": [
        {
          "internalType": "uint256",
          "name": "feeBps",
          "type": "uint256"
        }
      ],
      "name": "InvalidFee",
      "type": "error"
    },
    {
      "inputs": [],
      "name": "InvalidLocation",
      "type": "error"
    },
    {
      "inputs": [],
      "name": "InvalidMaxSupply",
      "type": "error"
    },
    {
      "inputs": [],
      "name": "InvalidName",
      "type": "error"
    },
    {
      "inputs": [
        {
          "internalType": "uint256",
          "name": "expected",
          "type": "uint256"
        },
        {
          "internalType": "uint256",
          "name": "actual",
          "type": "uint256"
        }
      ],
      "name": "InvalidPaymentAmount",
      "type": "error"
    },
    {
      "inputs": [],
      "name": "InvalidPrice",
      "type": "error"
    },
    {
      "inputs": [],
      "name": "InvalidTimestamp",
      "type": "error"
    },
    {
      "inputs": [],
      "name": "NotAuthorized",
      "type": "error"
    },
    {
      "inputs": [],
      "name": "NothingToRefund",
      "type": "error"
    },
    {
      "inputs": [],
      "name": "OnlyCreator",
      "type": "error"
    },
    {
      "inputs": [
        {
          "internalType": "address",
          "name": "owner",
          "type": "address"
        }
      ],
      "name": "OwnableInvalidOwner",
      "type": "error"
    },
    {
      "inputs": [
        {
          "internalType": "address",
          "name": "account",
          "type": "address"
        }
      ],
      "name": "OwnableUnauthorizedAccount",
      "type": "error"
    },
    {
      "inputs": [],
      "name": "ProceedsAlreadyWithdrawn",
      "type": "error"
    },
    {
      "inputs": [],
      "name": "ReentrancyGuardReentrantCall",
      "type": "error"
    },
    {
      "inputs": [],
      "name": "SoldOut",
      "type": "error"
    },
    {
      "inputs": [],
      "name": "ZeroAddress",
      "type": "error"
    },
    {
      "anonymous": false,
      "inputs": [
        {
          "indexed": true,
          "internalType": "address",
          "name": "newRecipient",
          "type": "address"
        }
      ],
      "name": "FeeRecipientUpdated",
      "type": "event"
    },
    {
      "anonymous": false,
      "inputs": [
        {
          "indexed": true,
          "internalType": "uint256",
          "name": "ticketId",
          "type": "uint256"
        },
        {
          "indexed": false,
          "internalType": "uint256",
          "name": "newMaxSupply",
          "type": "uint256"
        }
      ],
      "name": "MaxSupplyUpdated",
      "type": "event"
    },
    {
      "anonymous": false,
      "inputs": [
        {
          "indexed": true,
          "internalType": "address",
          "name": "previousOwner",
          "type": "address"
        },
        {
          "indexed": true,
          "internalType": "address",
          "name": "newOwner",
          "type": "address"
        }
      ],
      "name": "OwnershipTransferred",
      "type": "event"
    },
    {
      "anonymous": false,
      "inputs": [
        {
          "indexed": true,
          "internalType": "uint256",
          "name": "ticketId",
          "type": "uint256"
        },
        {
          "indexed": true,
          "internalType": "address",
          "name": "creator",
          "type": "address"
        },
        {
          "indexed": false,
          "internalType": "uint256",
          "name": "creatorAmount",
          "type": "uint256"
        },
        {
          "indexed": false,
          "internalType": "uint256",
          "name": "feeAmount",
          "type": "uint256"
        }
      ],
      "name": "ProceedsWithdrawn",
      "type": "event"
    },
    {
      "anonymous": false,
      "inputs": [
        {
          "indexed": true,
          "internalType": "uint256",
          "name": "ticketId",
          "type": "uint256"
        },
        {
          "indexed": true,
          "internalType": "address",
          "name": "user",
          "type": "address"
        },
        {
          "indexed": false,
          "internalType": "uint256",
          "name": "amount",
          "type": "uint256"
        }
      ],
      "name": "RefundClaimed",
      "type": "event"
    },
    {
      "anonymous": false,
      "inputs": [
        {
          "indexed": true,
          "internalType": "uint256",
          "name": "ticketId",
          "type": "uint256"
        },
        {
          "indexed": true,
          "internalType": "address",
          "name": "registrant",
          "type": "address"
        },
        {
          "indexed": false,
          "internalType": "uint256",
          "name": "nftTokenId",
          "type": "uint256"
        }
      ],
      "name": "Registered",
      "type": "event"
    },
    {
      "anonymous": false,
      "inputs": [
        {
          "indexed": false,
          "internalType": "uint16",
          "name": "newFeeBps",
          "type": "uint16"
        }
      ],
      "name": "ServiceFeeUpdated",
      "type": "event"
    },
    {
      "anonymous": false,
      "inputs": [
        {
          "indexed": true,
          "internalType": "uint256",
          "name": "ticketId",
          "type": "uint256"
        },
        {
          "indexed": true,
          "internalType": "address",
          "name": "canceledBy",
          "type": "address"
        }
      ],
      "name": "TicketCanceled",
      "type": "event"
    },
    {
      "anonymous": false,
      "inputs": [
        {
          "indexed": true,
          "internalType": "uint256",
          "name": "ticketId",
          "type": "uint256"
        },
        {
          "indexed": true,
          "internalType": "address",
          "name": "closedBy",
          "type": "address"
        }
      ],
      "name": "TicketClosed",
      "type": "event"
    },
    {
      "anonymous": false,
      "inputs": [
        {
          "indexed": true,
          "internalType": "uint256",
          "name": "ticketId",
          "type": "uint256"
        },
        {
          "indexed": true,
          "internalType": "address",
          "name": "creator",
          "type": "address"
        },
        {
          "indexed": false,
          "internalType": "uint256",
          "name": "price",
          "type": "uint256"
        },
        {
          "indexed": false,
          "internalType": "string",
          "name": "eventName",
          "type": "string"
        },
        {
          "indexed": false,
          "internalType": "string",
          "name": "description",
          "type": "string"
        },
        {
          "indexed": false,
          "internalType": "uint256",
          "name": "eventTimestamp",
          "type": "uint256"
        },
        {
          "indexed": false,
          "internalType": "uint256",
          "name": "maxSupply",
          "type": "uint256"
        }
      ],
      "name": "TicketCreated",
      "type": "event"
    },
    {
      "anonymous": false,
      "inputs": [
        {
          "indexed": true,
          "internalType": "uint256",
          "name": "ticketId",
          "type": "uint256"
        },
        {
          "indexed": false,
          "internalType": "uint256",
          "name": "newPrice",
          "type": "uint256"
        },
        {
          "indexed": false,
          "internalType": "uint256",
          "name": "newTimestamp",
          "type": "uint256"
        },
        {
          "indexed": false,
          "internalType": "string",
          "name": "newLocation",
          "type": "string"
        }
      ],
      "name": "TicketUpdated",
      "type": "event"
    },
    {
      "stateMutability": "payable",
      "type": "fallback"
    },
    {
      "inputs": [
        {
          "internalType": "uint256",
          "name": "ticketId",
          "type": "uint256"
        }
      ],
      "name": "cancelTicket",
      "outputs": [],
      "stateMutability": "nonpayable",
      "type": "function"
    },
    {
      "inputs": [
        {
          "internalType": "uint256",
          "name": "ticketId",
          "type": "uint256"
        }
      ],
      "name": "claimRefund",
      "outputs": [],
      "stateMutability": "nonpayable",
      "type": "function"
    },
    {
      "inputs": [
        {
          "internalType": "uint256",
          "name": "ticketId",
          "type": "uint256"
        }
      ],
      "name": "closeTicket",
      "outputs": [],
      "stateMutability": "nonpayable",
      "type": "function"
    },
    {
      "inputs": [
        {
          "internalType": "uint256",
          "name": "price",
          "type": "uint256"
        },
        {
          "internalType": "string",
          "name": "eventName",
          "type": "string"
        },
        {
          "internalType": "string",
          "name": "description",
          "type": "string"
        },
        {
          "internalType": "uint256",
          "name": "eventTimestamp",
          "type": "uint256"
        },
        {
          "internalType": "uint256",
          "name": "maxSupply",
          "type": "uint256"
        },
        {
          "internalType": "string",
          "name": "metadata",
          "type": "string"
        },
        {
          "internalType": "string",
          "name": "location",
          "type": "string"
        }
      ],
      "name": "createTicket",
      "outputs": [
        {
          "internalType": "uint256",
          "name": "newId",
          "type": "uint256"
        }
      ],
      "stateMutability": "nonpayable",
      "type": "function"
    },
    {
      "inputs": [],
      "name": "feeRecipient",
      "outputs": [
        {
          "internalType": "address payable",
          "name": "",
          "type": "address"
        }
      ],
      "stateMutability": "view",
      "type": "function"
    },
    {
      "inputs": [
        {
          "internalType": "uint256",
          "name": "ticketId",
          "type": "uint256"
        }
      ],
      "name": "finalizeEvent",
      "outputs": [],
      "stateMutability": "nonpayable",
      "type": "function"
    },
    {
      "inputs": [],
      "name": "getRecentTickets",
      "outputs": [
        {
          "components": [
            {
              "internalType": "uint256",
              "name": "id",
              "type": "uint256"
            },
            {
              "internalType": "address payable",
              "name": "creator",
              "type": "address"
            },
            {
              "internalType": "uint256",
              "name": "price",
              "type": "uint256"
            },
            {
              "internalType": "string",
              "name": "eventName",
              "type": "string"
            },
            {
              "internalType": "string",
              "name": "description",
              "type": "string"
            },
            {
              "internalType": "uint256",
              "name": "eventTimestamp",
              "type": "uint256"
            },
            {
              "internalType": "string",
              "name": "location",
              "type": "string"
            },
            {
              "internalType": "bool",
              "name": "closed",
              "type": "bool"
            },
            {
              "internalType": "bool",
              "name": "canceled",
              "type": "bool"
            },
            {
              "internalType": "string",
              "name": "metadata",
              "type": "string"
            },
            {
              "internalType": "uint256",
              "name": "maxSupply",
              "type": "uint256"
            },
            {
              "internalType": "uint256",
              "name": "sold",
              "type": "uint256"
            },
            {
              "internalType": "uint256",
              "name": "totalCollected",
              "type": "uint256"
            },
            {
              "internalType": "uint256",
              "name": "totalRefunded",
              "type": "uint256"
            },
            {
              "internalType": "bool",
              "name": "proceedsWithdrawn",
              "type": "bool"
            }
          ],
          "internalType": "struct EventTicketingLib.Ticket[]",
          "name": "",
          "type": "tuple[]"
        }
      ],
      "stateMutability": "view",
      "type": "function"
    },
    {
      "inputs": [
        {
          "internalType": "uint256",
          "name": "ticketId",
          "type": "uint256"
        }
      ],
      "name": "getRegistrants",
      "outputs": [
        {
          "internalType": "address[]",
          "name": "",
          "type": "address[]"
        }
      ],
      "stateMutability": "view",
      "type": "function"
    },
    {
      "inputs": [
        {
          "internalType": "uint256",
          "name": "ticketId",
          "type": "uint256"
        }
      ],
      "name": "getStatus",
      "outputs": [
        {
          "internalType": "enum EventTicketing.Status",
          "name": "",
          "type": "uint8"
        }
      ],
      "stateMutability": "view",
      "type": "function"
    },
    {
      "inputs": [],
      "name": "getTotalTickets",
      "outputs": [
        {
          "internalType": "uint256",
          "name": "",
          "type": "uint256"
        }
      ],
      "stateMutability": "view",
      "type": "function"
    },
    {
      "inputs": [
        {
          "internalType": "uint256",
          "name": "ticketId",
          "type": "uint256"
        }
      ],
      "name": "isAvailable",
      "outputs": [
        {
          "internalType": "bool",
          "name": "",
          "type": "bool"
        }
      ],
      "stateMutability": "view",
      "type": "function"
    },
    {
      "inputs": [
        {
          "internalType": "uint256",
          "name": "",
          "type": "uint256"
        },
        {
          "internalType": "address",
          "name": "",
          "type": "address"
        }
      ],
      "name": "isRegistered",
      "outputs": [
        {
          "internalType": "bool",
          "name": "",
          "type": "bool"
        }
      ],
      "stateMutability": "view",
      "type": "function"
    },
    {
      "inputs": [],
      "name": "owner",
      "outputs": [
        {
          "internalType": "address",
          "name": "",
          "type": "address"
        }
      ],
      "stateMutability": "view",
      "type": "function"
    },
    {
      "inputs": [
        {
          "internalType": "uint256",
          "name": "",
          "type": "uint256"
        },
        {
          "internalType": "address",
          "name": "",
          "type": "address"
        }
      ],
      "name": "paidAmount",
      "outputs": [
        {
          "internalType": "uint256",
          "name": "",
          "type": "uint256"
        }
      ],
      "stateMutability": "view",
      "type": "function"
    },
    {
      "inputs": [],
      "name": "platformFeeBps",
      "outputs": [
        {
          "internalType": "uint16",
          "name": "",
          "type": "uint16"
        }
      ],
      "stateMutability": "view",
      "type": "function"
    },
    {
      "inputs": [
        {
          "internalType": "uint256",
          "name": "ticketId",
          "type": "uint256"
        }
      ],
      "name": "register",
      "outputs": [
        {
          "internalType": "uint256",
          "name": "nftTokenId",
          "type": "uint256"
        }
      ],
      "stateMutability": "payable",
      "type": "function"
    },
    {
      "inputs": [],
      "name": "renounceOwnership",
      "outputs": [],
      "stateMutability": "nonpayable",
      "type": "function"
    },
    {
      "inputs": [
        {
          "internalType": "address payable",
          "name": "newRecipient",
          "type": "address"
        }
      ],
      "name": "setFeeRecipient",
      "outputs": [],
      "stateMutability": "nonpayable",
      "type": "function"
    },
    {
      "inputs": [
        {
          "internalType": "uint16",
          "name": "feeBps",
          "type": "uint16"
        }
      ],
      "name": "setServiceFee",
      "outputs": [],
      "stateMutability": "nonpayable",
      "type": "function"
    },
    {
      "inputs": [
        {
          "internalType": "address",
          "name": "ticketNftAddress",
          "type": "address"
        }
      ],
      "name": "setTicketNft",
      "outputs": [],
      "stateMutability": "nonpayable",
      "type": "function"
    },
    {
      "inputs": [],
      "name": "ticketNft",
      "outputs": [
        {
          "internalType": "contract ITicketNft",
          "name": "",
          "type": "address"
        }
      ],
      "stateMutability": "view",
      "type": "function"
    },
    {
      "inputs": [
        {
          "internalType": "uint256",
          "name": "",
          "type": "uint256"
        }
      ],
      "name": "tickets",
      "outputs": [
        {
          "internalType": "uint256",
          "name": "id",
          "type": "uint256"
        },
        {
          "internalType": "address payable",
          "name": "creator",
          "type": "address"
        },
        {
          "internalType": "uint256",
          "name": "price",
          "type": "uint256"
        },
        {
          "internalType": "string",
          "name": "eventName",
          "type": "string"
        },
        {
          "internalType": "string",
          "name": "description",
          "type": "string"
        },
        {
          "internalType": "uint256",
          "name": "eventTimestamp",
          "type": "uint256"
        },
        {
          "internalType": "string",
          "name": "location",
          "type": "string"
        },
        {
          "internalType": "bool",
          "name": "closed",
          "type": "bool"
        },
        {
          "internalType": "bool",
          "name": "canceled",
          "type": "bool"
        },
        {
          "internalType": "string",
          "name": "metadata",
          "type": "string"
        },
        {
          "internalType": "uint256",
          "name": "maxSupply",
          "type": "uint256"
        },
        {
          "internalType": "uint256",
          "name": "sold",
          "type": "uint256"
        },
        {
          "internalType": "uint256",
          "name": "totalCollected",
          "type": "uint256"
        },
        {
          "internalType": "uint256",
          "name": "totalRefunded",
          "type": "uint256"
        },
        {
          "internalType": "bool",
          "name": "proceedsWithdrawn",
          "type": "bool"
        }
      ],
      "stateMutability": "view",
      "type": "function"
    },
    {
      "inputs": [
        {
          "internalType": "uint256",
          "name": "ticketId",
          "type": "uint256"
        }
      ],
      "name": "ticketsLeft",
      "outputs": [
        {
          "internalType": "uint256",
          "name": "",
          "type": "uint256"
        }
      ],
      "stateMutability": "view",
      "type": "function"
    },
    {
      "inputs": [
        {
          "internalType": "address",
          "name": "newOwner",
          "type": "address"
        }
      ],
      "name": "transferOwnership",
      "outputs": [],
      "stateMutability": "nonpayable",
      "type": "function"
    },
    {
      "inputs": [
        {
          "internalType": "uint256",
          "name": "ticketId",
          "type": "uint256"
        },
        {
          "internalType": "uint256",
          "name": "newMaxSupply",
          "type": "uint256"
        }
      ],
      "name": "updateMaxSupply",
      "outputs": [],
      "stateMutability": "nonpayable",
      "type": "function"
    },
    {
      "inputs": [
        {
          "internalType": "uint256",
          "name": "ticketId",
          "type": "uint256"
        },
        {
          "internalType": "uint256",
          "name": "newPrice",
          "type": "uint256"
        },
        {
          "internalType": "string",
          "name": "newLocation",
          "type": "string"
        },
        {
          "internalType": "uint256",
          "name": "newEventTimestamp",
          "type": "uint256"
        }
      ],
      "name": "updateTicket",
      "outputs": [],
      "stateMutability": "nonpayable",
      "type": "function"
    },
    {
      "inputs": [
        {
          "internalType": "uint256",
          "name": "ticketId",
          "type": "uint256"
        }
      ],
      "name": "withdrawProceeds",
      "outputs": [],
      "stateMutability": "nonpayable",
      "type": "function"
    },
    {
      "stateMutability": "payable",
      "type": "receive"
    }
  ],
  "bytecode": "0x60803461016657601f61256638819003918201601f19168301916001600160401b0383118484101761016b578084926060946040528339810103126101665780516001600160a01b038116908190036101665760208201516001600160a01b0381169283820361016657604001519161ffff83168093036101665733156101505760008054336001600160a01b0319821681178355604051969290916001600160a01b0316907f8be0079c531659141344cd1fd0a4f28419497f9722a3daafe3b4186f6b6457e09080a360018055811561013f571561013f57612710831161012a57600280546001600160a01b031916919091179055600880546001600160b01b03191660109290921b62010000600160b01b0316919091179190911790556123e490816101828239f35b8263179c637760e11b60005260045260246000fd5b63d92e233d60e01b60005260046000fd5b631e4fbdf760e01b600052600060045260246000fd5b600080fd5b634e487b7160e01b600052604160045260246000fdfe6080806040526004361015610038575b5036156100275763574b16a760e11b60005260046000fd5b63574b16a760e11b60005260046000fd5b60003560e01c908163017c565514611a015750806306e8337f146119e357806320e14e491461194057806322dcd13e1461191e578063238e875f146118835780633a178d991461185b5780633d914ecd146110d557806346904840146110a857806350b4471214610f6f5780635b7baf6414610eaf5780635c622a0e14610e6a5780637031ff8014610e1d578063710c597314610df7578063715018a614610d9e5780637c00e4db14610b265780638da5cb5b14610afd578063999a27fe14610ab55780639b3e745a14610a365780639b71e673146109d6578063a2be261f14610884578063b81f6e1814610837578063d9f1aed91461079b578063e09b2a6214610772578063e74b981b146106df578063ee355b1f14610538578063f207564e146101fc5763f2fde38b1461016e573861000f565b346101f75760203660031901126101f757610187611c45565b61018f612211565b6001600160a01b031680156101e157600080546001600160a01b03198116831782556001600160a01b0316907f8be0079c531659141344cd1fd0a4f28419497f9722a3daafe3b4186f6b6457e09080a3005b631e4fbdf760e01b600052600060045260246000fd5b600080fd5b60203660031901126101f757600435610213612123565b80600052600360205260406000209081541561052757600782015460ff81166105165760081c60ff16610505576005820180544210156104f457600082815260056020908152604080832033845290915290205460ff166104e357600a830154600984015411156104d25760028301548034036104ba5750816000526006602052604060002060018060a01b0333166000526020526040600020349055816000526003602052600b6040600020016102cc348254611e12565b9055816000526003602052600a604060002001805490600182018092116104a457558160005260046020526040600020928354916801000000000000000083101561048e57610326836103e796600160209601815561210b565b81549060031b9033821b9160018060a01b03901b19161790558360005260058352604060002060018060a01b03331660005283526040600020600160ff19825416179055546103d5600061037c60038501611b60565b6103fe610397600661039060048901611b60565b9701611b60565b9460018060a01b0360025416956040519a8b9889978896631b42d6a960e31b88523360048901528d602489015260c0604489015260c4880190611c04565b86810360031901606488015290611c04565b9160848501526003198483030160a4850152611c04565b03925af19081156104825760009161044d575b60209250604051908282527f39dd062cc095bf933d83338d8e4591b7eb119264d876f173cacb1cfdf2c9737f843393a360018055604051908152f35b90506020823d60201161047a575b8161046860209383611b3f565b810103126101f7576020915190610411565b3d915061045b565b6040513d6000823e3d90fd5b634e487b7160e01b600052604160045260246000fd5b634e487b7160e01b600052601160045260246000fd5b6305dbe7d360e01b6000526004523460245260446000fd5b6352df9fe560e01b60005260046000fd5b630ea075bf60e21b60005260046000fd5b6323d9ec0960e01b60005260046000fd5b634a4e1d6160e11b60005260046000fd5b6384b734c360e01b60005260046000fd5b635add554360e01b60005260046000fd5b346101f75760203660031901126101f757600435610554612123565b80600052600360205260406000208054156105275760018101546001600160a01b0316331415806106ca575b6106b957600701805460ff8160081c1615610680575b50508060005260046020526040600020908060005260096020526040600020549060968201918281116104a4578354808411610678575b505b8281106105ee5750600052600960205260406000205560018055600080f35b806105fb6001928661210b565b838060a01b0391549060031b1c1683600052600660205283604080600020600090868060a01b038516825260205220548061063a575b505050016105cf565b6020816106697ff3f402280ef0a7905e124aa621b65eaeb2725c343e8b36d398ed78c29daf285c938686612175565b604051908152a3858381610631565b9250846105cd565b61ffff191661010117905533817f856f105c150817c7b4994960bcf1ff34f18912db8f0892ae56fb87470c8b9f3f600080a38180610596565b63ea8e4eb560e01b60005260046000fd5b506000546001600160a01b0316331415610580565b346101f75760203660031901126101f7576004356001600160a01b038116908181036101f75761070d612211565b8115610761576008805462010000600160b01b03191660109290921b62010000600160b01b03169190911790557f7a7b5a0a132f9e0581eb8527f66eae9ee89c2a3e79d4ac7e41a1f1f4d48a7fc2600080a2005b63d92e233d60e01b60005260046000fd5b346101f75760003660031901126101f7576002546040516001600160a01b039091168152602090f35b346101f75760203660031901126101f7576004356107b7612123565b80600052600360205260406000208054156105275760018101546001600160a01b031633036108265760ff600782015460081c1661050557600581015442106104f45760ff600d820154166108155761080f9161223a565b60018055005b63ed56d45760e01b60005260046000fd5b6308f78f9960e31b60005260046000fd5b346101f75760403660031901126101f757610850611c5b565b600435600052600560205260406000209060018060a01b0316600052602052602060ff604060002054166040519015158152f35b346101f75760003660031901126101f75761089d611e49565b6040518091602082016020835281518091526040830190602060408260051b8601019301916000905b8282106108d557505050500390f35b919360019193955060208091603f1989820301855287519081518152848060a01b03838301511683820152604082015160408201526101c08061098e61096061094461093260608801516101e060608901526101e0880190611c04565b60808801518782036080890152611c04565b60a087015160a087015260c087015186820360c0880152611c04565b60e0860151151560e08601526101008601511515610100860152610120860151858203610120870152611c04565b936101408101516101408501526101608101516101608501526101808101516101808501526101a08101516101a08501520151151591015296019201920185949391926108c6565b346101f75760203660031901126101f7576004356109f2612123565b80600052600360205260406000208054156105275760ff600782015460081c1661050557600581015442106104f45760ff600d820154166108155761080f9161223a565b346101f75760203660031901126101f75760043561ffff81168091036101f757610a5e612211565b6127108111610aa1576020817fb4c8a49c815aff443d1d27ce1429e4affed0237024410b84729f24d349b80e1a9261ffff196008541617600855604051908152a1005b63179c637760e11b60005260045260246000fd5b346101f75760403660031901126101f757610ace611c5b565b600435600052600660205260406000209060018060a01b03166000526020526020604060002054604051908152f35b346101f75760003660031901126101f7576000546040516001600160a01b039091168152602090f35b346101f75760803660031901126101f7576024356004356044356001600160401b0381116101f757610b5c903690600401611abc565b92606435918360005260036020526040600020948554156105275760018601546001600160a01b0316330361082657600786015460ff8160081c166105055760ff1661051657600586018054421015610d8d5742851115610d7c578315610d6c578115610d5b576006610bd0368486611d02565b978560028201550187516001600160401b03811161048e57610bf28254611ae9565b601f8111610d13575b506020601f8211600114610c83579181610c739695949289947fc23f26eef4d4205025e77d6fc59bd3e912b6e335b222c54f5980d65a8fd5812e9b9c600092610c78575b50508160011b916000199060031b1c19161790555b5560405194859485526020850152606060408501526060840191611d39565b0390a2005b015190508c80610c3f565b601f1982169983600052816000209a60005b818110610cfb5750927fc23f26eef4d4205025e77d6fc59bd3e912b6e335b222c54f5980d65a8fd5812e9a9b8a959360019383610c739b9a999710610ce2575b505050811b019055610c54565b015160001960f88460031b161c191690558c8080610cd5565b838301518d556001909c019b60209384019301610c95565b826000526020600020601f830160051c81019160208410610d51575b601f0160051c01905b818110610d455750610bfb565b60008155600101610d38565b9091508190610d2f565b63f80f144560e01b60005260046000fd5b62bfc92160e01b60005260046000fd5b63b7d0949760e01b60005260046000fd5b63292403c360e01b60005260046000fd5b346101f75760003660031901126101f757610db7612211565b600080546001600160a01b0319811682556001600160a01b03167f8be0079c531659141344cd1fd0a4f28419497f9722a3daafe3b4186f6b6457e08280a3005b346101f75760203660031901126101f7576020610e15600435611dc1565b604051908152f35b346101f75760203660031901126101f757610e36611c45565b610e3e612211565b6001600160a01b03168015610761576bffffffffffffffffffffffff60a01b6002541617600255600080f35b346101f75760203660031901126101f757610e86600435611d5a565b6040516004821015610e99576020918152f35b634e487b7160e01b600052602160045260246000fd5b346101f75760203660031901126101f757600435610ecb612123565b8060005260036020526040600020805415610527576007015460081c60ff1615610f5e576000818152600660209081526040808320338452909152902054908115610f4d57610f1b823383612175565b6040519182527ff3f402280ef0a7905e124aa621b65eaeb2725c343e8b36d398ed78c29daf285c60203393a360018055005b63f76aef6560e01b60005260046000fd5b6301de2a6560e31b60005260046000fd5b346101f75760203660031901126101f757600435600052600360205260406000208054600160a01b6001900360018301541691600281015460038201610fb490611b60565b91610fc160048201611b60565b60058201549390610fd460068401611b60565b6007840154610fe560088601611b60565b91600986015497600a87015494600b88015496600c89015498600d015460ff16996040519d8e809e81526020015260408d015260608c016101e090526101e08c0161102f91611c04565b8b810360808d015261104091611c04565b9060a08b015289810360c08b015261105791611c04565b9060ff8116151560e08a015260081c60ff16151561010089015287810361012089015261108391611c04565b946101408701526101608601526101808501526101a084015215156101c08301520390f35b346101f75760003660031901126101f75760085460405160109190911c6001600160a01b03168152602090f35b346101f75760e03660031901126101f7576024356001600160401b0381116101f757611105903690600401611abc565b906044356001600160401b0381116101f757611125903690600401611abc565b60a4939193356001600160401b0381116101f757611147903690600401611abc565b939060c4356001600160401b0381116101f757611168903690600401611abc565b959095426064351115610d7c576084351561184a578515611839578415611828576111c160016007540197886007556111b96111a5368a89611d02565b956111b1368a8e611d02565b953691611d02565b923691611d02565b92604051926111cf84611b23565b888452602084019433865260408501916004358352606086019384526080860190815260a0860190606435825260c0870192835260e0870194600086526101008801946000865261012089019788526084356101408a015260006101608a015260006101808a015260006101a08a015260006101c08a01528d600052600360205260406000209989518b5560018b019060018060a01b039051166bffffffffffffffffffffffff60a01b8254161790555160028a01556003890190518051906001600160401b03821161048e5781906112a88454611ae9565b601f81116117d5575b50602090601f831160011461177057600092611765575b50508160011b916000199060031b1c19161790555b51805160048901916001600160401b03821161048e5781906112ff8454611ae9565b601f8111611712575b50602090601f83116001146116ad576000926116a2575b50508160011b916000199060031b1c19161790555b51600587015551805160068701916001600160401b03821161048e57819061135c8454611ae9565b601f811161164f575b50602090601f83116001146115ea576000926115df575b50508160011b916000199060031b1c19161790555b6113ae6007860192511515839060ff801983541691151516179055565b51815461ff00191690151560081b61ff0016179055518051906001600160401b03821161048e576113e26008850154611ae9565b601f8111611594575b50918795939160209995938a90601f83116001146114ef5793600d6101c06114b795857ff71b42493765497065cfba18b42f5fdcf53336aad1f5ae821f7e3b54482880679b999661149e966114c59c9a6000926114e4575b50508160011b916000199060031b1c19161760088501555b6101408101516009850155610160810151600a850155610180810151600b8501556101a0810151600c8501550151151591019060ff801983541691151516179055565b60405197600435895260a08b8a015260a0890191611d39565b918683036040880152611d39565b92606435606082015260843560808201528033940390a3604051908152f35b015190503880611443565b9060088501600052806000209160005b601f198516811061157a57506101c06114b79560018661149e966114c59c9a96600d967ff71b42493765497065cfba18b42f5fdcf53336aad1f5ae821f7e3b54482880679f9d9a601f19811610611561575b505050811b01600885015561145b565b015160001960f88460031b161c19169055388080611551565b8183015184558c9a50600190930192918d01918d016114ff565b600885016000526020600020601f840160051c810191602085106115d5575b601f0160051c01905b8181106115c957506113eb565b600081556001016115bc565b90915081906115b3565b015190508d8061137c565b60008581528281209350601f198516905b818110611637575090846001959493921061161e575b505050811b019055611391565b015160001960f88460031b161c191690558d8080611611565b929360206001819287860151815501950193016115fb565b909150836000526020600020601f840160051c81019160208510611698575b90601f859493920160051c01905b8181106116895750611365565b6000815584935060010161167c565b909150819061166e565b015190508f8061131f565b60008581528281209350601f198516905b8181106116fa57509084600195949392106116e1575b505050811b019055611334565b015160001960f88460031b161c191690558f80806116d4565b929360206001819287860151815501950193016116be565b909150836000526020600020601f840160051c8101916020851061175b575b90601f859493920160051c01905b81811061174c5750611308565b6000815584935060010161173f565b9091508190611731565b0151905038806112c8565b60008581528281209350601f198516905b8181106117bd57509084600195949392106117a4575b505050811b0190556112dd565b015160001960f88460031b161c19169055388080611797565b92936020600181928786015181550195019301611781565b909150836000526020600020601f840160051c8101916020851061181e575b90601f859493920160051c01905b81811061180f57506112b1565b60008155849350600101611802565b90915081906117f4565b6340132f1f60e01b60005260046000fd5b63430f13b360e01b60005260046000fd5b63066f305360e21b60005260046000fd5b346101f75760203660031901126101f7576020611879600435611c71565b6040519015158152f35b346101f75760403660031901126101f75760043560243581600052600360205260406000208054156105275760018101546001600160a01b0316330361082657600781015460ff8160081c166105055760ff1661051657600a810154821061184a57811561184a57817f44ecfc706d63e347851cfd40acfa6cf2e3a41faa3e8b460210c03938e84a91ad9260096020930155604051908152a2005b346101f75760003660031901126101f757602061ffff60085416604051908152f35b346101f75760203660031901126101f75760043580600052600360205260406000208054156105275760018101546001600160a01b0316331415806119ce575b6106b957600701805460ff81166105165760ff8160081c166105055760ff1916600117905533907f6b1b7348ef8c34cb796294e383344baff089786a86c14cd5cd96bb50382d7dfe600080a3005b506000546001600160a01b0316331415611980565b346101f75760003660031901126101f7576020600754604051908152f35b346101f75760203660031901126101f757600435600052600460205260406000209081548082526020820190819360005260206000209060005b818110611a9d5750505081611a51910382611b3f565b6040519182916020830190602084525180915260408301919060005b818110611a7b575050500390f35b82516001600160a01b0316845285945060209384019390920191600101611a6d565b82546001600160a01b0316845260209093019260019283019201611a3b565b9181601f840112156101f7578235916001600160401b0383116101f757602083818601950101116101f757565b90600182811c92168015611b19575b6020831014611b0357565b634e487b7160e01b600052602260045260246000fd5b91607f1691611af8565b6101e081019081106001600160401b0382111761048e57604052565b90601f801991011681019081106001600160401b0382111761048e57604052565b9060405191826000825492611b7484611ae9565b8084529360018116908115611be25750600114611b9b575b50611b9992500383611b3f565b565b90506000929192526020600020906000915b818310611bc6575050906020611b999282010138611b8c565b6020919350806001915483858901015201910190918492611bad565b905060209250611b9994915060ff191682840152151560051b82010138611b8c565b919082519283825260005b848110611c30575050826000602080949584010152601f8019910116010190565b80602080928401015182828601015201611c0f565b600435906001600160a01b03821682036101f757565b602435906001600160a01b03821682036101f757565b600052600360205260406000208054158015611cd9575b8015611cc8575b8015611cba575b611cb4576009600a8201549101541115611caf57600190565b600090565b50600090565b506005810154421015611c96565b5060ff600782015460081c16611c8f565b5060ff600782015416611c88565b6001600160401b03811161048e57601f01601f191660200190565b929192611d0e82611ce7565b91611d1c6040519384611b3f565b8294818452818301116101f7578281602093846000960137010152565b908060209392818452848401376000828201840152601f01601f1916010190565b6000526003602052604060002080541561052757600781015460ff8160081c16611dad5760ff16611d9b575b60050154421015611d9657600090565b600190565b6005810154421015611d865750600390565b5050600290565b919082039182116104a457565b60005260036020526040600020805415611cb4576009600a8201549101549081811015611df457611df191611db4565b90565b5050600090565b6001600160401b03811161048e5760051b60200190565b919082018092116104a457565b8051821015611e335760209160051b010190565b634e487b7160e01b600052603260045260246000fd5b6007546060811561206357506064811190811561205c576064915b15612053576063198101908082116104a457606219018091116104a457905b611e8c81611dfb565b91611e9a6040519384611b3f565b818352601f19611ea983611dfb565b0160005b818110611fcd57505060005b828110611ec65750505090565b80611ed360019284611e12565b6000526003602052604060002060ff600d60405192611ef184611b23565b80548452858060a01b038682015416602085015260028101546040850152611f1b60038201611b60565b6060850152611f2c60048201611b60565b6080850152600581015460a0850152611f4760068201611b60565b60c0850152826007820154818116151560e087015260081c161515610100850152611f7460088201611b60565b6101208501526009810154610140850152600a810154610160850152600b810154610180850152600c8101546101a085015201541615156101c0820152611fbb8287611e1f565b52611fc68186611e1f565b5001611eb9565b602090604051611fdc81611b23565b600081526000838201526000604082015260608082015260606080820152600060a0820152606060c0820152600060e08201526000610100820152606061012082015260006101408201526000610160820152600061018082015260006101a082015260006101c082015282828801015201611ead565b50600190611e83565b8091611e64565b60405191506000612075602084611b3f565b8252600090815b8281106120895750505090565b60209060405161209881611b23565b60008152600083820152600060408201528380820152836080820152600060a08201528360c0820152600060e082015260006101008201528361012082015260006101408201526000610160820152600061018082015260006101a082015260006101c08201528282870101520161207c565b8054821015611e335760005260206000200190600090565b600260015414612134576002600155565b633ee5aeb560e01b60005260046000fd5b3d15612170573d9061215682611ce7565b916121646040519384611b3f565b82523d6000602084013e565b606090565b600080938193829380845260066020526040842060018060a01b038316855260205283604081205583526003602052600c60408420016121b6838254611e12565b90556001600160a01b03165af16121cb612145565b50156121d357565b60405162461bcd60e51b81526020600482015260166024820152751c99599d5b99081d1c985b9cd9995c8819985a5b195960521b6044820152606490fd5b6000546001600160a01b0316330361222557565b63118cdaa760e01b6000523360045260246000fd5b61224d600b830154600c84015490611db4565b9161ffff600854168084029084820414841517156104a45761271061227491048094611db4565b600d8201805460ff19166001179055600854909190849060101c6001600160a01b031681612355575b505060010180546001600160a01b0316826122f3575b50546040805192835260208301949094526001600160a01b0316927ff267235ebfb630032a6a04de47e34751541c9a48e736f5c5ae79cbb519cbbd5291a3565b600080808581945af1612304612145565b501561231057386122b3565b60405162461bcd60e51b815260206004820152601760248201527f63726561746f72207472616e73666572206661696c65640000000000000000006044820152606490fd5b600080809381935af1612366612145565b501561237357833861229d565b60405162461bcd60e51b8152602060048201526013602482015272199959481d1c985b9cd9995c8819985a5b1959606a1b6044820152606490fdfea26469706673582212205536ab52776b3b9119c90750e874777206f28642ab74c8d0d9d33410cdb8556164736f6c634300081c0033",
  "linkReferences": {},
  "deployedLinkReferences": {}
}