{
  "_format": "hh-sol-artifact-1",
  "contractName": "TicketNft",
  "sourceName": "contracts/TicketNft.sol",
  "abi": [
    {
      "inputs": [
        {
          "internalType": "string",
          "name": "name_",
          "type": "string"
        },
        {
          "internalType": "string",
          "name": "symbol_",
          "type": "string"
        },
        {
          "internalType": "string",
          "name": "imageUri_",
          "type": "string"
        }
      ],
      "stateMutability": "nonpayable",
      "type": "constructor"
    },
    {
      "inputs": [
        {
          "internalType": "address",
          "name": "sender",
          "type": "address"
        },
        {
          "internalType": "uint256",
          "name": "tokenId",
          "type": "uint256"
        },
        {
          "internalType": "address",
          "name": "owner",
          "type": "address"
        }
      ],
      "name": "ERC721IncorrectOwner",
      "type": "error"
    },
    {
      "inputs": [
        {
          "internalType": "address",
          "name": "operator",
          "type": "address"
        },
        {
          "internalType": "uint256",
          "name": "tokenId",
          "type": "uint256"
        }
      ],
      "name": "ERC721InsufficientApproval",
      "type": "error"
    },
    {
      "inputs": [
        {
          "internalType": "address",
          "name": "approver",
          "type": "address"
        }
      ],
      "name": "ERC721InvalidApprover",
      "type": "error"
    },
    {
      "inputs": [
        {
          "internalType": "address",
          "name": "operator",
          "type": "address"
        }
      ],
      "name": "ERC721InvalidOperator",
      "type": "error"
    },
    {
      "inputs": [
        {
          "internalType": "address",
          "name": "owner",
          "type": "address"
        }
      ],
      "name": "ERC721InvalidOwner",
      "type": "error"
    },
    {
      "inputs": [
        {
          "internalType": "address",
          "name": "receiver",
          "type": "address"
        }
      ],
      "name": "ERC721InvalidReceiver",
      "type": "error"
    },
    {
      "inputs": [
        {
          "internalType": "address",
          "name": "sender",
          "type": "address"
        }
      ],
      "name": "ERC721InvalidSender",
      "type": "error"
    },
    {
      "inputs": [
        {
          "internalType": "uint256",
          "name": "tokenId",
          "type": "uint256"
        }
      ],
      "name": "ERC721NonexistentToken",
      "type": "error"
    },
    {
      "inputs": [],
      "name": "InvalidImageUri",
      "type": "error"
    },
    {
      "inputs": [
        {
          "internalType": "address",
          "name": "owner",
          "type": "address"
        }
      ],
      "name": "OwnableInvalidOwner",
      "type": "error"
    },
    {
      "inputs": [
        {
          "internalType": "address",
          "name": "account",
          "type": "address"
        }
      ],
      "name": "OwnableUnauthorizedAccount",
      "type": "error"
    },
    {
      "anonymous": false,
      "inputs": [
        {
          "indexed": true,
          "internalType": "address",
          "name": "owner",
          "type": "address"
        },
        {
          "indexed": true,
          "internalType": "address",
          "name": "approved",
          "type": "address"
        },
        {
          "indexed": true,
          "internalType": "uint256",
          "name": "tokenId",
          "type": "uint256"
        }
      ],
      "name": "Approval",
      "type": "event"
    },
    {
      "anonymous": false,
      "inputs": [
        {
          "indexed": true,
          "internalType": "address",
          "name": "owner",
          "type": "address"
        },
        {
          "indexed": true,
          "internalType": "address",
          "name": "operator",
          "type": "address"
        },
        {
          "indexed": false,
          "internalType": "bool",
          "name": "approved",
          "type": "bool"
        }
      ],
      "name": "ApprovalForAll",
      "type": "event"
    },
    {
      "anonymous": false,
      "inputs": [
        {
          "indexed": false,
          "internalType": "string",
          "name": "newImageUri",
          "type": "string"
        }
      ],
      "name": "ImageUriUpdated",
      "type": "event"
    },
    {
      "anonymous": false,
      "inputs": [
        {
          "indexed": true,
          "internalType": "address",
          "name": "oldMinter",
          "type": "address"
        },
        {
          "indexed": true,
          "internalType": "address",
          "name": "newMinter",
          "type": "address"
        }
      ],
      "name": "MinterChanged",
      "type": "event"
    },
    {
      "anonymous": false,
      "inputs": [
        {
          "indexed": true,
          "internalType": "address",
          "name": "previousOwner",
          "type": "address"
        },
        {
          "indexed": true,
          "internalType": "address",
          "name": "newOwner",
          "type": "address"
        }
      ],
      "name": "OwnershipTransferred",
      "type": "event"
    },
    {
      "anonymous": false,
      "inputs": [
        {
          "indexed": true,
          "internalType": "address",
          "name": "to",
          "type": "address"
        },
        {
          "indexed": true,
          "internalType": "uint256",
          "name": "tokenId",
          "type": "uint256"
        },
        {
          "indexed": true,
          "internalType": "uint256",
          "name": "ticketId",
          "type": "uint256"
        }
      ],
      "name": "TicketMinted",
      "type": "event"
    },
    {
      "anonymous": false,
      "inputs": [
        {
          "indexed": true,
          "internalType": "address",
          "name": "from",
          "type": "address"
        },
        {
          "indexed": true,
          "internalType": "address",
          "name": "to",
          "type": "address"
        },
        {
          "indexed": true,
          "internalType": "uint256",
          "name": "tokenId",
          "type": "uint256"
        }
      ],
      "name": "Transfer",
      "type": "event"
    },
    {
      "inputs": [
        {
          "internalType": "address",
          "name": "to",
          "type": "address"
        },
        {
          "internalType": "uint256",
          "name": "tokenId",
          "type": "uint256"
        }
      ],
      "name": "approve",
      "outputs": [],
      "stateMutability": "nonpayable",
      "type": "function"
    },
    {
      "inputs": [
        {
          "internalType": "address",
          "name": "owner",
          "type": "address"
        }
      ],
      "name": "balanceOf",
      "outputs": [
        {
          "internalType": "uint256",
          "name": "",
          "type": "uint256"
        }
      ],
      "stateMutability": "view",
      "type": "function"
    },
    {
      "inputs": [
        {
          "internalType": "uint256",
          "name": "tokenId",
          "type": "uint256"
        }
      ],
      "name": "getApproved",
      "outputs": [
        {
          "internalType": "address",
          "name": "",
          "type": "address"
        }
      ],
      "stateMutability": "view",
      "type": "function"
    },
    {
      "inputs": [
        {
          "internalType": "uint256",
          "name": "tokenId",
          "type": "uint256"
        }
      ],
      "name": "getTicketMetadata",
      "outputs": [
        {
          "components": [
            {
              "internalType": "uint256",
              "name": "ticketId",
              "type": "uint256"
            },
            {
              "internalType": "string",
              "name": "eventName",
              "type": "string"
            },
            {
              "internalType": "string",
              "name": "description",
              "type": "string"
            },
            {
              "internalType": "uint256",
              "name": "eventTimestamp",
              "type": "uint256"
            },
            {
              "internalType": "string",
              "name": "location",
              "type": "string"
            }
          ],
          "internalType": "struct TicketNft.TicketMetadata",
          "name": "",
          "type": "tuple"
        }
      ],
      "stateMutability": "view",
      "type": "function"
    },
    {
      "inputs": [],
      "name": "imageUri",
      "outputs": [
        {
          "internalType": "string",
          "name": "",
          "type": "string"
        }
      ],
      "stateMutability": "view",
      "type": "function"
    },
    {
      "inputs": [
        {
          "internalType": "address",
          "name": "owner",
          "type": "address"
        },
        {
          "internalType": "address",
          "name": "operator",
          "type": "address"
        }
      ],
      "name": "isApprovedForAll",
      "outputs": [
        {
          "internalType": "bool",
          "name": "",
          "type": "bool"
        }
      ],
      "stateMutability": "view",
      "type": "function"
    },
    {
      "inputs": [
        {
          "internalType": "address",
          "name": "to",
          "type": "address"
        },
        {
          "internalType": "uint256",
          "name": "ticketId",
          "type": "uint256"
        },
        {
          "internalType": "string",
          "name": "eventName",
          "type": "string"
        },
        {
          "internalType": "string",
          "name": "description",
          "type": "string"
        },
        {
          "internalType": "uint256",
          "name": "eventTimestamp",
          "type": "uint256"
        },
        {
          "internalType": "string",
          "name": "location",
          "type": "string"
        }
      ],
      "name": "mintForRegistrant",
      "outputs": [
        {
          "internalType": "uint256",
          "name": "newTokenId",
          "type": "uint256"
        }
      ],
      "stateMutability": "nonpayable",
      "type": "function"
    },
    {
      "inputs": [],
      "name": "minter",
      "outputs": [
        {
          "internalType": "address",
          "name": "",
          "type": "address"
        }
      ],
      "stateMutability": "view",
      "type": "function"
    },
    {
      "inputs": [],
      "name": "name",
      "outputs": [
        {
          "internalType": "string",
          "name": "",
          "type": "string"
        }
      ],
      "stateMutability": "view",
      "type": "function"
    },
    {
      "inputs": [],
      "name": "owner",
      "outputs": [
        {
          "internalType": "address",
          "name": "",
          "type": "address"
        }
      ],
      "stateMutability": "view",
      "type": "function"
    },
    {
      "inputs": [
        {
          "internalType": "uint256",
          "name": "tokenId",
          "type": "uint256"
        }
      ],
      "name": "ownerOf",
      "outputs": [
        {
          "internalType": "address",
          "name": "",
          "type": "address"
        }
      ],
      "stateMutability": "view",
      "type": "function"
    },
    {
      "inputs": [],
      "name": "renounceOwnership",
      "outputs": [],
      "stateMutability": "nonpayable",
      "type": "function"
    },
    {
      "inputs": [
        {
          "internalType": "address",
          "name": "from",
          "type": "address"
        },
        {
          "internalType": "address",
          "name": "to",
          "type": "address"
        },
        {
          "internalType": "uint256",
          "name": "tokenId",
          "type": "uint256"
        }
      ],
      "name": "safeTransferFrom",
      "outputs": [],
      "stateMutability": "nonpayable",
      "type": "function"
    },
    {
      "inputs": [
        {
          "internalType": "address",
          "name": "from",
          "type": "address"
        },
        {
          "internalType": "address",
          "name": "to",
          "type": "address"
        },
        {
          "internalType": "uint256",
          "name": "tokenId",
          "type": "uint256"
        },
        {
          "internalType": "bytes",
          "name": "data",
          "type": "bytes"
        }
      ],
      "name": "safeTransferFrom",
      "outputs": [],
      "stateMutability": "nonpayable",
      "type": "function"
    },
    {
      "inputs": [
        {
          "internalType": "address",
          "name": "operator",
          "type": "address"
        },
        {
          "internalType": "bool",
          "name": "approved",
          "type": "bool"
        }
      ],
      "name": "setApprovalForAll",
      "outputs": [],
      "stateMutability": "nonpayable",
      "type": "function"
    },
    {
      "inputs": [
        {
          "internalType": "string",
          "name": "newImageUri",
          "type": "string"
        }
      ],
      "name": "setImageUri",
      "outputs": [],
      "stateMutability": "nonpayable",
      "type": "function"
    },
    {
      "inputs": [
        {
          "internalType": "address",
          "name": "newMinter",
          "type": "address"
        }
      ],
      "name": "setMinter",
      "outputs": [],
      "stateMutability": "nonpayable",
      "type": "function"
    },
    {
      "inputs": [
        {
          "internalType": "bytes4",
          "name": "interfaceId",
          "type": "bytes4"
        }
      ],
      "name": "supportsInterface",
      "outputs": [
        {
          "internalType": "bool",
          "name": "",
          "type": "bool"
        }
      ],
      "stateMutability": "view",
      "type": "function"
    },
    {
      "inputs": [],
      "name": "symbol",
      "outputs": [
        {
          "internalType": "string",
          "name": "",
          "type": "string"
        }
      ],
      "stateMutability": "view",
      "type": "function"
    },
    {
      "inputs": [
        {
          "internalType": "uint256",
          "name": "tokenId",
          "type": "uint256"
        }
      ],
      "name": "tokenURI",
      "outputs": [
        {
          "internalType": "string",
          "name": "",
          "type": "string"
        }
      ],
      "stateMutability": "view",
      "type": "function"
    },
    {
      "inputs": [
        {
          "internalType": "address",
          "name": "from",
          "type": "address"
        },
        {
          "internalType": "address",
          "name": "to",
          "type": "address"
        },
        {
          "internalType": "uint256",
          "name": "tokenId",
          "type": "uint256"
        }
      ],
      "name": "transferFrom",
      "outputs": [],
      "stateMutability": "nonpayable",
      "type": "function"
    },
    {
      "inputs": [
        {
          "internalType": "address",
          "name": "newOwner",
          "type": "address"
        }
      ],
      "name": "transferOwnership",
      "outputs": [],
      "stateMutability": "nonpayable",
      "type": "function"
    }
  ],
  "bytecode": "0x6080604052346104fe576124d28038038061001981610503565b92833981016060828203126104fe5781516001600160401b0381116104fe5781610044918401610528565b60208301519092906001600160401b0381116104fe5782610066918301610528565b60408201519092906001600160401b0381116104fe576100869201610528565b82516001600160401b03811161030357600054600181811c911680156104f4575b60208210146102e357601f8111610490575b506020601f821160011461042a578192939460009261041f575b50508160011b916000199060031b1c1916176000555b81516001600160401b03811161030357600154600181811c91168015610415575b60208210146102e357601f81116103b0575b50602092601f821160011461034b5792819293600092610340575b50508160011b916000199060031b1c1916176001555b331561032a5760068054336001600160a01b0319821681179092556001600160a01b03167f8be0079c531659141344cd1fd0a4f28419497f9722a3daafe3b4186f6b6457e0600080a38051156103195780516001600160401b03811161030357600954600181811c911680156102f9575b60208210146102e357601f811161027e575b50602091601f821160011461021a5791819260009261020f575b50508160011b916000199060031b1c1916176009555b604051611f3e90816105948239f35b0151905038806101ea565b601f198216926009600052806000209160005b8581106102665750836001951061024d575b505050811b01600955610200565b015160001960f88460031b161c1916905538808061023f565b9192602060018192868501518155019401920161022d565b60096000527f6e1540171b6c0c960b71a7020d9f60077f6af931a8bbf590da0223dacf75c7af601f830160051c810191602084106102d9575b601f0160051c01905b8181106102cd57506101d0565b600081556001016102c0565b90915081906102b7565b634e487b7160e01b600052602260045260246000fd5b90607f16906101be565b634e487b7160e01b600052604160045260246000fd5b6314ad733d60e31b60005260046000fd5b631e4fbdf760e01b600052600060045260246000fd5b015190503880610137565b601f198216936001600052806000209160005b868110610398575083600195961061037f575b505050811b0160015561014d565b015160001960f88460031b161c19169055388080610371565b9192602060018192868501518155019401920161035e565b60016000527fb10e2d527612073b26eecdfd717e6a320cf44b4afac2b0732d9fcbe2b7fa0cf6601f830160051c8101916020841061040b575b601f0160051c01905b8181106103ff575061011c565b600081556001016103f2565b90915081906103e9565b90607f169061010a565b0151905038806100d3565b601f1982169060008052806000209160005b8181106104785750958360019596971061045f575b505050811b016000556100e9565b015160001960f88460031b161c19169055388080610451565b9192602060018192868b01518155019401920161043c565b600080527f290decd9548b62a8d60345a988386fc84ba6bc95484008f6362f93160ef3e563601f830160051c810191602084106104ea575b601f0160051c01905b8181106104de57506100b9565b600081556001016104d1565b90915081906104c8565b90607f16906100a7565b600080fd5b6040519190601f01601f191682016001600160401b0381118382101761030357604052565b81601f820112156104fe578051906001600160401b03821161030357610557601f8301601f1916602001610503565b92828452602083830101116104fe5760005b82811061057e57505060206000918301015290565b8060208092840101518282870101520161056956fe608080604052600436101561001357600080fd5b60003560e01c90816301ffc9a7146116355750806306fdde03146115905780630754617214611567578063081812fc14611529578063095ea7b31461143a5780630bf82da4146113a457806323b872dd1461138d57806342842e0e1461135d5780636352211e1461132d57806370a08231146112d7578063715018a61461127a5780638da5cb5b1461125157806395d89b4114611184578063a22cb465146110e3578063b88d4fde14611075578063ba0ae43c14610f74578063c87b56dd14610b88578063d9e5ea4d14610964578063da16b54814610273578063e985e9c514610218578063f2fde38b1461018e5763fca3b5aa1461011157600080fd5b346101895760203660031901126101895761012a6116e8565b610132611af4565b6001600160a01b0316610146811515611a71565b600854816001600160a01b0382167f3b0007eb941cf645526cbb3a4fdaecda9d28ce4843167d9263b536a1f1edc0f6600080a36001600160a01b03191617600855005b600080fd5b34610189576020366003190112610189576101a76116e8565b6101af611af4565b6001600160a01b0316801561020257600680546001600160a01b0319811683179091556001600160a01b03167f8be0079c531659141344cd1fd0a4f28419497f9722a3daafe3b4186f6b6457e0600080a3005b631e4fbdf760e01b600052600060045260246000fd5b34610189576040366003190112610189576102316116e8565b6102396116fe565b9060018060a01b0316600052600560205260406000209060018060a01b0316600052602052602060ff604060002054166040519015158152f35b346101895760c03660031901126101895761028c6116e8565b60243560443567ffffffffffffffff8111610189576102af9036906004016118bd565b9160643567ffffffffffffffff8111610189576102d09036906004016118bd565b9160a43567ffffffffffffffff8111610189576102f19036906004016118bd565b6008546001600160a01b0316330361091f576001600160a01b03831680158015969195919061031f88611a71565b60016007540195866007556020986040519261033b8b8561176a565b60008452610909576002888a8c7fddf252ad1be2c89b69c2b068fc378daa952ba7f163c4a11628f55a4df523b3ef600084815285835260018060a01b0360408220541695869384151598896108d5575b6108be575b868352526040812080546001600160a01b0319168517905580a4506108a85788903b61078d575b5050604051916103c68361174e565b84835287830191825260408301908152606083019160843583526080840194855286600052600a895260406000209351845560018401905180519067ffffffffffffffff82116105f757819061041c8454611714565b601f811161073c575b508b90601f83116001146106d5576000926106ca575b50508160011b916000199060031b1c19161790555b518051600284019167ffffffffffffffff82116105f7576104718354611714565b601f8111610684575b508990601f831160011461061857600495949392916000918361060d575b50508160011b916000199060031b1c19161790555b51600382015501905180519067ffffffffffffffff82116105f75781906104d48454611714565b601f81116105a6575b508790601f831160011461054157600092610536575b50508160011b916000199060031b1c19161790555b81604051937fcbea9c23945e351434f7ae5b1a435091cc278dd9dd0eba4c04203674014ca7d7600080a48152f35b0151905087806104f3565b60008581528981209350601f198516905b8a828210610590575050908460019594939210610577575b505050811b019055610508565b015160001960f88460031b161c1916905587808061056a565b6001859682939686015181550195019301610552565b9091508360005287600020601f840160051c8101918985106105ed575b90601f859493920160051c01905b8181106105de57506104dd565b600081558493506001016105d1565b90915081906105c3565b634e487b7160e01b600052604160045260246000fd5b015190508b80610498565b90601f19831691846000528b6000209260005b8d82821061066e5750509160019391856004999897969410610655575b505050811b0190556104ad565b015160001960f88460031b161c191690558b8080610648565b600185968293968601518155019501930161062b565b836000528a600020601f840160051c8101918c85106106c0575b601f0160051c01905b8181106106b4575061047a565b600081556001016106a7565b909150819061069e565b015190508b8061043b565b60008581528d81209350601f198516908e5b82821061072457505090846001959493921061070b575b505050811b019055610450565b015160001960f88460031b161c191690558b80806106fe565b806001869782949787015181550196019401906106e7565b909150836000528b600020601f840160051c8101918d8510610783575b90601f859493920160051c01905b8181106107745750610425565b60008155849350600101610767565b9091508190610759565b6107c69160405180938192630a85bd0160e11b8352336004840152600060248401528a60448401526080606484015260848301906116c3565b038160008b5af18091600091610863575b50906108305786883d15610828573d906107f08261186a565b916107fe604051938461176a565b82523d60008284013e5b815191826108255783633250574960e11b60005260045260246000fd5b01fd5b606090610808565b6001600160e01b03191663757a42ff60e11b0161084e5787876103b7565b85633250574960e11b60005260045260246000fd5b8981813d83116108a1575b610878818361176a565b8101031261089d5751906001600160e01b03198216820361089a5750896107d7565b80fd5b5080fd5b503d61086e565b6339e3563760e11b600052600060045260246000fd5b858352600381526040832060018154019055610390565b600088815260046020526040902080546001600160a01b03191690558584526003825260408420805460001901905561038b565b633250574960e11b600052600060045260246000fd5b60405162461bcd60e51b815260206004820152601f60248201527f5469636b65744e66743a2063616c6c6572206973206e6f74206d696e746572006044820152606490fd5b346101895760203660031901126101895760043567ffffffffffffffff8111610189576109959036906004016118bd565b61099d611af4565b805115610b4357805167ffffffffffffffff81116105f7576109c0600954611714565b601f8111610ad6575b506020601f8211600114610a40579181610a30927ff7c3621393b2fb83d58a2e2c303cc58d9f6599a753edddfa633df52a07a1011494600091610a35575b508160011b916000199060031b1c1916176009555b6040519182916020835260208301906116c3565b0390a1005b905082015185610a07565b601f198216906009600052600080516020611ee98339815191529160005b818110610abe5750927ff7c3621393b2fb83d58a2e2c303cc58d9f6599a753edddfa633df52a07a10114949260019282610a309610610aa5575b5050811b01600955610a1c565b84015160001960f88460031b161c191690558580610a98565b91926020600181928689015181550194019201610a5e565b6009600052601f820160051c600080516020611ee9833981519152019060208310610b2d575b601f0160051c600080516020611ee983398151915201905b818110610b2157506109c9565b60008155600101610b14565b600080516020611ee98339815191529150610afc565b60405162461bcd60e51b815260206004820152601c60248201527f5469636b65744e66743a20696d616765557269207265717569726564000000006044820152606490fd5b3461018957602036600319011261018957600435610ba581611abd565b5080600052600a602052604060002090604051610bc18161174e565b82548152610bd16001840161178c565b602082019081526002610be581860161178c565b9260408101938452602a610c2f610c28610c1f610c10600460038c01549b606088019c8d520161178c565b96608086019788525198611c8c565b96519351611c8c565b9751611c8c565b93519460405196693d913730b6b2911d101160b11b6020890152610c5c815180926020868c0191016116a0565b870161202360f01b83820152610c7c825180936020602c850191016116a0565b010161088b60f21b838201526f113232b9b1b934b83a34b7b7111d101160811b6004820152610cb58251809360206014850191016116a0565b01019361088b60f21b6012860152691134b6b0b3b2911d101160b11b6014860152600094600954610ce581611714565b9060018116908115610f515750600114610f07575b610f03610eaf87610e4b6004602883602a8c8f8d8d60369261088b60f21b81526e2261747472696275746573223a205b60881b60028201527f7b2274726169745f74797065223a20224576656e74204944222c202276616c7560118201526432911d101160d91b6031820152610d7982518093602087850191016116a0565b0162089f4b60ea1b838201527f7b2274726169745f74797065223a20224576656e742044617465222c20227661603982015266363ab2911d101160c91b6059820152610dcf8251809360206060850191016116a0565b010162089f4b60ea1b838201527f7b2274726169745f74797065223a20224c6f636174696f6e222c202276616c75602d8201526432911d101160d91b604d820152610e248251809360206052850191016116a0565b010161227d60f01b83820152615d7d60f01b602a8201520301601b1981018452018261176a565b60405190610e5a60608361176a565b604082527f4142434445464748494a4b4c4d4e4f505152535455565758595a61626364656660208301527f6768696a6b6c6d6e6f707172737475767778797a303132333435363738392b2f6040830152611dd6565b610a1c603d60405180937f646174613a6170706c69636174696f6e2f6a736f6e3b6261736536342c0000006020830152610ef281518092602086860191016116a0565b81010301601f19810183528261176a565b0390f35b9095506009600052600080516020611ee98339815191526000905b828210610f3a575050909401601e0193602884610cfa565b8054828901601e0152602090910190600101610f22565b60ff1916601e808501919091528215159092029092010195506028905084610cfa565b346101895760203660031901126101895760043560606080604051610f988161174e565b600081528260208201528260408201526000838201520152610fb981611abd565b50600052600a6020526040600020604051610fd38161174e565b81548152610f03610fe66001840161178c565b9260208301938452610ffa6002820161178c565b6040840190815261105c61101c6004600385015494606088019586520161178c565b9160808601928352611049604051978897602089525160208901525160a0604089015260c08801906116c3565b9051868203601f190160608801526116c3565b9151608085015251838203601f190160a08501526116c3565b346101895760803660031901126101895761108e6116e8565b6110966116fe565b906044356064359267ffffffffffffffff84116101895736602385011215610189576110cf6110e1943690602481600401359101611886565b926110db8383836118db565b33611b1d565b005b34610189576040366003190112610189576110fc6116e8565b60243590811515809203610189576001600160a01b031690811561116f57336000526005602052604060002082600052602052604060002060ff1981541660ff83161790556040519081527f17307eab39ab6107e8899845ad3d59bd9653f200f220920489ca2b5937696c3160203392a3005b50630b61174360e31b60005260045260246000fd5b346101895760003660031901126101895760405160006001546111a681611714565b808452906001811690811561122d57506001146111ce575b610f0383610a1c8185038261176a565b600160009081527fb10e2d527612073b26eecdfd717e6a320cf44b4afac2b0732d9fcbe2b7fa0cf6939250905b80821061121357509091508101602001610a1c6111be565b9192600181602092548385880101520191019092916111fb565b60ff191660208086019190915291151560051b84019091019150610a1c90506111be565b34610189576000366003190112610189576006546040516001600160a01b039091168152602090f35b3461018957600036600319011261018957611293611af4565b600680546001600160a01b031981169091556000906001600160a01b03167f8be0079c531659141344cd1fd0a4f28419497f9722a3daafe3b4186f6b6457e08280a3005b34610189576020366003190112610189576001600160a01b036112f86116e8565b1680156113175760005260036020526020604060002054604051908152f35b6322718ad960e21b600052600060045260246000fd5b3461018957602036600319011261018957602061134b600435611abd565b6040516001600160a01b039091168152f35b34610189576110e161136e36611830565b906040519261137e60208561176a565b600084526110db8383836118db565b34610189576110e161139e36611830565b916118db565b346101895760003660031901126101895760405160006009546113c681611714565b808452906001811690811561122d57506001146113ed57610f0383610a1c8185038261176a565b60096000908152600080516020611ee9833981519152939250905b80821061142057509091508101602001610a1c6111be565b919260018160209254838588010152019101909291611408565b34610189576040366003190112610189576114536116e8565b60243561145f81611abd565b33151580611516575b806114e8575b6114d35781906001600160a01b0384811691167f8c5be1e5ebec7d5bd14f71427d1e84f3dd0314c0f7b2291e5b200ac8c7c3b925600080a4600090815260046020526040902080546001600160a01b0319166001600160a01b03909216919091179055005b63a9fbf51f60e01b6000523360045260246000fd5b506001600160a01b038116600090815260056020908152604080832033845290915290205460ff161561146e565b506001600160a01b038116331415611468565b346101895760203660031901126101895760043561154681611abd565b506000526004602052602060018060a01b0360406000205416604051908152f35b34610189576000366003190112610189576008546040516001600160a01b039091168152602090f35b3461018957600036600319011261018957604051600080546115b181611714565b808452906001811690811561122d57506001146115d857610f0383610a1c8185038261176a565b60008080527f290decd9548b62a8d60345a988386fc84ba6bc95484008f6362f93160ef3e563939250905b80821061161b57509091508101602001610a1c6111be565b919260018160209254838588010152019101909291611603565b34610189576020366003190112610189576004359063ffffffff60e01b8216809203610189576020916380ac58cd60e01b811490811561168f575b811561167e575b5015158152f35b6301ffc9a760e01b14905083611677565b635b5e139f60e01b81149150611670565b60005b8381106116b35750506000910152565b81810151838201526020016116a3565b906020916116dc815180928185528580860191016116a0565b601f01601f1916010190565b600435906001600160a01b038216820361018957565b602435906001600160a01b038216820361018957565b90600182811c92168015611744575b602083101461172e57565b634e487b7160e01b600052602260045260246000fd5b91607f1691611723565b60a0810190811067ffffffffffffffff8211176105f757604052565b90601f8019910116810190811067ffffffffffffffff8211176105f757604052565b90604051918260008254926117a084611714565b808452936001811690811561180e57506001146117c7575b506117c59250038361176a565b565b90506000929192526020600020906000915b8183106117f25750509060206117c592820101386117b8565b60209193508060019154838589010152019101909184926117d9565b9050602092506117c594915060ff191682840152151560051b820101386117b8565b6060906003190112610189576004356001600160a01b038116810361018957906024356001600160a01b0381168103610189579060443590565b67ffffffffffffffff81116105f757601f01601f191660200190565b9291926118928261186a565b916118a0604051938461176a565b829481845281830111610189578281602093846000960137010152565b9080601f83011215610189578160206118d893359101611886565b90565b6001600160a01b0390911691908215610909576000828152600260205260408120546001600160a01b03169383918590331515806119d9575b507fddf252ad1be2c89b69c2b068fc378daa952ba7f163c4a11628f55a4df523b3ef90826119a4575b83815260036020526040812060018154019055848152600260205260408120846bffffffffffffffffffffffff60a01b82541617905580a46001600160a01b031680830361198a57505050565b6364283d7b60e01b60005260045260245260445260646000fd5b600085815260046020526040902080546001600160a01b0319169055828152600360205260408120805460001901905561193d565b915091925080611a22575b156119f3579084849238611914565b839085611a0c57602491637e27328960e01b8252600452fd5b60449163177e802f60e01b825233600452602452fd5b503385148015611a50575b806119e45750838152600460205260408120546001600160a01b031633146119e4565b5084815260056020908152604080832033845290915281205460ff16611a2d565b15611a7857565b60405162461bcd60e51b815260206004820152601760248201527f5469636b65744e66743a207a65726f20616464726573730000000000000000006044820152606490fd5b6000818152600260205260409020546001600160a01b0316908115611ae0575090565b637e27328960e01b60005260045260246000fd5b6006546001600160a01b03163303611b0857565b63118cdaa760e01b6000523360045260246000fd5b823b611b2b575b5050505050565b604051630a85bd0160e11b81526001600160a01b039182166004820152918116602483015260448201939093526080606482015291169160209082908190611b779060848301906116c3565b03816000865af18091600091611c17575b5090611be157503d15611bda573d611b9f8161186a565b90611bad604051928361176a565b81523d6000602083013e5b80519081611bd55782633250574960e11b60005260045260246000fd5b602001fd5b6060611bb8565b6001600160e01b03191663757a42ff60e11b01611c0357503880808080611b24565b633250574960e11b60005260045260246000fd5b6020813d602011611c52575b81611c306020938361176a565b8101031261089d5751906001600160e01b03198216820361089a575038611b88565b3d9150611c23565b90611c648261186a565b611c71604051918261176a565b8281528092611c82601f199161186a565b0190602036910137565b8060009172184f03e93ff9f4daa797ed6e38ed64bf6a1f0160401b821015611db3575b806d04ee2d6d415b85acef8100000000600a921015611d98575b662386f26fc10000811015611d84575b6305f5e100811015611d73575b612710811015611d64575b6064811015611d56575b1015611d4b575b600a6021611d1260018501611c5a565b938401015b60001901916f181899199a1a9b1b9c1cb0b131b232b360811b8282061a8353048015611d4657600a9091611d17565b505090565b600190910190611d02565b606460029104930192611cfb565b61271060049104930192611cf1565b6305f5e10060089104930192611ce6565b662386f26fc1000060109104930192611cd9565b6d04ee2d6d415b85acef810000000060209104930192611cc9565b506040915072184f03e93ff9f4daa797ed6e38ed64bf6a1f0160401b8104611caf565b919091805115611ed057805160028101809111611eba5760039004600281901b906001600160fe1b03811603611eba57611e0f90611c5a565b9060208201908081518201956020870190815192600083525b888110611e6c5750506003939495965052510680600114611e5957600214611e4e575090565b603d90600019015390565b50603d9081600019820153600119015390565b600360049199969901986001603f8b5182828260121c16870101518453828282600c1c16870101518385015382828260061c1687010151600285015316840101516003820153019497611e28565b634e487b7160e01b600052601160045260246000fd5b509050604051611ee160208261176a565b600081529056fe6e1540171b6c0c960b71a7020d9f60077f6af931a8bbf590da0223dacf75c7afa26469706673582212200d7701ab2e6be963e06f187c93c30f030f18dd4bc5b57af57aae8fb04b9eba4664736f6c634300081c0033",
  "linkReferences": {},
  "deployedLinkReferences": {}
}