{
  "_format": "hh-sol-artifact-1",
  "contractName": "TicketResaleMarket",
  "sourceName": "contracts/TicketResaleMarket.sol",
  "abi": [
    {
      "inputs": [
        {
          "internalType": "address",
          "name": "eventTicketingAddress",
          "type": "address"
        },
        {
          "internalType": "address",
          "name": "ticketNftAddress",
          "type": "address"
        },
        {
          "internalType": "address payable",
          "name": "feeRecipient_",
          "type": "address"
        },
        {
          "internalType": "uint16",
          "name": "royaltyBps_",
          "type": "uint16"
        }
      ],
      "stateMutability": "nonpayable",
      "type": "constructor"
    },
    {
      "inputs": [],
      "name": "InvalidRoyalty",
      "type": "error"
    },
    {
      "inputs": [],
      "name": "NotOwner",
      "type": "error"
    },
    {
      "inputs": [],
      "name": "ReentrancyGuardReentrantCall",
      "type": "error"
    },
    {
      "inputs": [],
      "name": "ZeroAddress",
      "type": "error"
    },
    {
      "anonymous": false,
      "inputs": [
        {
          "indexed": true,
          "internalType": "address",
          "name": "newRecipient",
          "type": "address"
        }
      ],
      "name": "FeeRecipientUpdated",
      "type": "event"
    },
    {
      "anonymous": false,
      "inputs": [
        {
          "indexed": false,
          "internalType": "uint256",
          "name": "newMaxPrice",
          "type": "uint256"
        }
      ],
      "name": "MaxPriceUpdated",
      "type": "event"
    },
    {
      "anonymous": false,
      "inputs": [
        {
          "indexed": true,
          "internalType": "address",
          "name": "previousOwner",
          "type": "address"
        },
        {
          "indexed": true,
          "internalType": "address",
          "name": "newOwner",
          "type": "address"
        }
      ],
      "name": "OwnershipTransferred",
      "type": "event"
    },
    {
      "anonymous": false,
      "inputs": [
        {
          "indexed": false,
          "internalType": "uint16",
          "name": "newRoyaltyBps",
          "type": "uint16"
        }
      ],
      "name": "RoyaltyUpdated",
      "type": "event"
    },
    {
      "anonymous": false,
      "inputs": [
        {
          "indexed": true,
          "internalType": "uint256",
          "name": "tokenId",
          "type": "uint256"
        },
        {
          "indexed": true,
          "internalType": "uint256",
          "name": "ticketId",
          "type": "uint256"
        },
        {
          "indexed": true,
          "internalType": "address",
          "name": "seller",
          "type": "address"
        },
        {
          "indexed": false,
          "internalType": "uint256",
          "name": "price",
          "type": "uint256"
        }
      ],
      "name": "TicketListed",
      "type": "event"
    },
    {
      "anonymous": false,
      "inputs": [
        {
          "indexed": true,
          "internalType": "uint256",
          "name": "tokenId",
          "type": "uint256"
        },
        {
          "indexed": true,
          "internalType": "uint256",
          "name": "ticketId",
          "type": "uint256"
        },
        {
          "indexed": true,
          "internalType": "address",
          "name": "seller",
          "type": "address"
        },
        {
          "indexed": false,
          "internalType": "address",
          "name": "buyer",
          "type": "address"
        },
        {
          "indexed": false,
          "internalType": "uint256",
          "name": "price",
          "type": "uint256"
        },
        {
          "indexed": false,
          "internalType": "uint256",
          "name": "royaltyAmount",
          "type": "uint256"
        }
      ],
      "name": "TicketSold",
      "type": "event"
    },
    {
      "stateMutability": "payable",
      "type": "fallback"
    },
    {
      "inputs": [
        {
          "internalType": "uint256",
          "name": "tokenId",
          "type": "uint256"
        }
      ],
      "name": "buyTicket",
      "outputs": [],
      "stateMutability": "payable",
      "type": "function"
    },
    {
      "inputs": [
        {
          "internalType": "uint256",
          "name": "tokenId",
          "type": "uint256"
        }
      ],
      "name": "cancelListing",
      "outputs": [],
      "stateMutability": "nonpayable",
      "type": "function"
    },
    {
      "inputs": [],
      "name": "eventTicketing",
      "outputs": [
        {
          "internalType": "contract IEventTicketing",
          "name": "",
          "type": "address"
        }
      ],
      "stateMutability": "view",
      "type": "function"
    },
    {
      "inputs": [],
      "name": "feeRecipient",
      "outputs": [
        {
          "internalType": "address payable",
          "name": "",
          "type": "address"
        }
      ],
      "stateMutability": "view",
      "type": "function"
    },
    {
      "inputs": [
        {
          "internalType": "uint256",
          "name": "tokenId",
          "type": "uint256"
        }
      ],
      "name": "getListing",
      "outputs": [
        {
          "internalType": "uint256",
          "name": "ticketId_",
          "type": "uint256"
        },
        {
          "internalType": "uint256",
          "name": "tokenId_2",
          "type": "uint256"
        },
        {
          "internalType": "address",
          "name": "seller",
          "type": "address"
        },
        {
          "internalType": "uint256",
          "name": "price",
          "type": "uint256"
        },
        {
          "internalType": "bool",
          "name": "active",
          "type": "bool"
        }
      ],
      "stateMutability": "view",
      "type": "function"
    },
    {
      "inputs": [
        {
          "internalType": "uint256",
          "name": "tokenId",
          "type": "uint256"
        },
        {
          "internalType": "uint256",
          "name": "price",
          "type": "uint256"
        }
      ],
      "name": "listTicket",
      "outputs": [],
      "stateMutability": "nonpayable",
      "type": "function"
    },
    {
      "inputs": [
        {
          "internalType": "uint256",
          "name": "",
          "type": "uint256"
        }
      ],
      "name": "listings",
      "outputs": [
        {
          "internalType": "uint256",
          "name": "ticketId",
          "type": "uint256"
        },
        {
          "internalType": "uint256",
          "name": "tokenId",
          "type": "uint256"
        },
        {
          "internalType": "address",
          "name": "seller",
          "type": "address"
        },
        {
          "internalType": "uint256",
          "name": "price",
          "type": "uint256"
        },
        {
          "internalType": "bool",
          "name": "active",
          "type": "bool"
        }
      ],
      "stateMutability": "view",
      "type": "function"
    },
    {
      "inputs": [],
      "name": "maxPrice",
      "outputs": [
        {
          "internalType": "uint256",
          "name": "",
          "type": "uint256"
        }
      ],
      "stateMutability": "view",
      "type": "function"
    },
    {
      "inputs": [],
      "name": "owner",
      "outputs": [
        {
          "internalType": "address",
          "name": "",
          "type": "address"
        }
      ],
      "stateMutability": "view",
      "type": "function"
    },
    {
      "inputs": [],
      "name": "royaltyBps",
      "outputs": [
        {
          "internalType": "uint16",
          "name": "",
          "type": "uint16"
        }
      ],
      "stateMutability": "view",
      "type": "function"
    },
    {
      "inputs": [
        {
          "internalType": "address payable",
          "name": "newRecipient",
          "type": "address"
        }
      ],
      "name": "setFeeRecipient",
      "outputs": [],
      "stateMutability": "nonpayable",
      "type": "function"
    },
    {
      "inputs": [
        {
          "internalType": "uint256",
          "name": "newMaxPrice",
          "type": "uint256"
        }
      ],
      "name": "setMaxPrice",
      "outputs": [],
      "stateMutability": "nonpayable",
      "type": "function"
    },
    {
      "inputs": [
        {
          "internalType": "uint16",
          "name": "newRoyaltyBps",
          "type": "uint16"
        }
      ],
      "name": "setRoyalty",
      "outputs": [],
      "stateMutability": "nonpayable",
      "type": "function"
    },
    {
      "inputs": [],
      "name": "ticketNft",
      "outputs": [
        {
          "internalType": "contract IERC721",
          "name": "",
          "type": "address"
        }
      ],
      "stateMutability": "view",
      "type": "function"
    },
    {
      "inputs": [
        {
          "internalType": "address",
          "name": "newOwner",
          "type": "address"
        }
      ],
      "name": "transferOwnership",
      "outputs": [],
      "stateMutability": "nonpayable",
      "type": "function"
    },
    {
      "stateMutability": "payable",
      "type": "receive"
    }
  ],
  "bytecode": "0x60803461016557601f6113c938819003918201601f19168301916001600160401b0383118484101761016a578084926080946040528339810103126101655761004781610180565b9061005460208201610180565b604082015190926001600160a01b03821692909183900361016557606001519061ffff821690818303610165576001600055683635c9adc5dea000006005556001600160a01b03169081158015610154575b801561014c575b61013b576127101061012a57600180546001600160a01b031990811633179091556002805482169290921790915560038054600480549093169094179091556001600160b01b03199092166001600160a01b03939093169290921760a09290921b61ffff60a01b1691909117905560405161123490816101958239f35b63e0e54ced60e01b60005260046000fd5b63d92e233d60e01b60005260046000fd5b5083156100ad565b506001600160a01b038516156100a6565b600080fd5b634e487b7160e01b600052604160045260246000fd5b51906001600160a01b03821682036101655756fe6080806040526004361015610097575b5036156100525760405162461bcd60e51b815260206004820152601460248201527314995cd85b194e881a5b9d985b1a590818d85b1b60621b6044820152606490fd5b60405162461bcd60e51b815260206004820152601c60248201527f526573616c653a2073656e6420766961206275795469636b65742829000000006044820152606490fd5b600090813560e01c908163107a274a14610fd857508063305a67a814610f20578063305a905a14610b4d57806336e79a5a14610a6e5780634690484014610a455780636188c42d14610a1c57806367dd74ca146104785780638da5cb5b1461044f578063c63adb2b1461042a578063de74e57b146103bb578063e09b2a6214610392578063e38d6b5c14610374578063e74b981b146102c3578063f2fde38b146101fb5763f43952e30361000f57346101f85760203660031901126101f857600154600435906001600160a01b031633036101e95780156101a4576020817f202e0ba938a78b3edea663296e8a06054c65df48fc652817d1e4231351a4c1e292600555604051908152a180f35b60405162461bcd60e51b815260206004820152601d60248201527f526573616c653a206d6178207072696365206d757374206265203e20300000006044820152606490fd5b6330cd747160e01b8252600482fd5b80fd5b50346101f85760203660031901126101f8576004356001600160a01b038116908190036102bf576001546001600160a01b038116338190036102b05782156102745782907f8be0079c531659141344cd1fd0a4f28419497f9722a3daafe3b4186f6b6457e08580a36001600160a01b0319161760015580f35b60405162461bcd60e51b8152602060048201526014602482015273526573616c653a207a65726f206164647265737360601b6044820152606490fd5b6330cd747160e01b8452600484fd5b5080fd5b50346101f85760203660031901126101f8576004356001600160a01b038116908190036102bf576001546001600160a01b031633036101e957801561033b57600480546001600160a01b031916821790557f7a7b5a0a132f9e0581eb8527f66eae9ee89c2a3e79d4ac7e41a1f1f4d48a7fc28280a280f35b60405162461bcd60e51b81526020600482015260116024820152702932b9b0b6329d103d32b9379030b2323960791b6044820152606490fd5b50346101f857806003193601126101f8576020600554604051908152f35b50346101f857806003193601126101f8576003546040516001600160a01b039091168152602090f35b50346101f85760203660031901126101f85760048035825260066020908152604092839020805460018201546002830154600384015493909501548651928352938201526001600160a01b0390931693830193909352606082019290925260ff9091161515608082015260a090f35b50346101f857806003193601126101f857602061ffff60035460a01c16604051908152f35b50346101f857806003193601126101f8576001546040516001600160a01b039091168152602090f35b5060203660031901126101f8576004356002825414610a0d5760028255808252600660205260408220600481019081546104b460ff82166110b9565b6003820154908134106109c857600283019360018060a01b038554169182331461098b5760018060a01b036002541660208654602460405180948193632e31150760e11b835260048301525afa9081156108b15761051e9160ff918b9161095c575b50161561114f565b6003546040516331a9108f60e11b8152600481018990526001600160a01b0390911690602081602481855afa80156108ed5785918b9161093d575b506001600160a01b0316036108f85760405163e985e9c560e01b81526001600160a01b038516600482015230602482015290602082604481845afa9182156108ed578a926108bc575b508115610842575b50156107fd5760ff191690556003549061ffff8260a01c168084029084820414841517156107e957612710889104966105e3888661119b565b936001600160a01b031692833b156107e557606490836040519586948593632142170760e11b8552600485015233602485015260448401525af180156107da576107c6575b5085908561075a575b806106ec575b5050803411610691575b60607ffffc3deb35aa9e4517f4b252905c151b319d34187db6992abdc3dcd1b0ae382d91600184015493549460018060a01b03905416956040519133835260208301526040820152a46001815580f35b8480808061069f853461119b565b335af16106aa6111be565b506106415760405162461bcd60e51b815260206004820152601560248201527414995cd85b194e881c99599d5b990819985a5b1959605a1b6044820152606490fd5b8454829182918291906001600160a01b03165af16107086111be565b5015610715578438610637565b60405162461bcd60e51b815260206004820152601e60248201527f526573616c653a2073656c6c6572207472616e73666572206661696c656400006044820152606490fd5b908080808860018060a01b03600454165af16107746111be565b5015610781578590610631565b60405162461bcd60e51b815260206004820152601f60248201527f526573616c653a20726f79616c7479207472616e73666572206661696c6564006044820152606490fd5b866107d391979297611097565b9438610628565b6040513d89823e3d90fd5b8280fd5b634e487b7160e01b88526011600452602488fd5b60405162461bcd60e51b815260206004820152601860248201527f526573616c653a20617070726f76616c206d697373696e6700000000000000006044820152606490fd5b602491506020906040519283809263020604bf60e21b82528c60048301525afa9081156108b1578991610882575b506001600160a01b03163014386105aa565b6108a4915060203d6020116108aa575b61089c8183611097565b8101906110fa565b38610870565b503d610892565b6040513d8b823e3d90fd5b6108df91925060203d6020116108e6575b6108d78183611097565b81019061111e565b90386105a2565b503d6108cd565b6040513d8c823e3d90fd5b60405162461bcd60e51b815260206004820152601e60248201527f526573616c653a2073656c6c6572206e6f206c6f6e676572206f776e657200006044820152606490fd5b610956915060203d6020116108aa5761089c8183611097565b38610559565b61097e915060203d602011610984575b6109768183611097565b810190611136565b38610516565b503d61096c565b60405162461bcd60e51b8152602060048201526015602482015274526573616c653a2073656c6620707572636861736560581b6044820152606490fd5b60405162461bcd60e51b815260206004820152601c60248201527f526573616c653a20696e73756666696369656e74207061796d656e74000000006044820152606490fd5b633ee5aeb560e01b8252600482fd5b50346101f857806003193601126101f8576002546040516001600160a01b039091168152602090f35b50346101f857806003193601126101f8576004546040516001600160a01b039091168152602090f35b50346101f85760203660031901126101f85760043561ffff8116908181036107e5576001546001600160a01b03163303610b3e576127108211610af9576003805461ffff60a01b191660a09290921b61ffff60a01b169190911790556040519081527fda0fdc743bf03c626bcac6e6509af1b15dfa6dabfde58682f6706b85efa9f9b490602090a180f35b60405162461bcd60e51b815260206004820152601860248201527f526573616c653a20726f79616c747920746f6f206869676800000000000000006044820152606490fd5b6330cd747160e01b8352600483fd5b50346101f85760403660031901126101f85760243560043581151580610f14575b15610ed7576003546040516331a9108f60e11b8152600481018390526001600160a01b039091169190602081602481865afa908115610d3c578591610eb8575b50336001600160a01b0390911603610e7f5760405163e985e9c560e01b8152336004820152306024820152602081604481865afa908115610d3c578591610e60575b508015610e04575b15610dc857808452600660205260ff600460408620015416610d8a576020602492604051938480926333355e0b60e11b82528560048301525afa918215610d7f578492610d47575b50600254604051632e31150760e11b81526004810184905290602090829060249082906001600160a01b03165afa908115610d3c57610c8a9160ff91879161095c5750161561114f565b604051610c9681611065565b82815260046020820191838352604081013381526060820190878252608083019460018652868a52600660205260408a2093518455516001840155600283019060018060a01b039051166bffffffffffffffffffffffff60a01b825416179055516003820155019051151560ff801983541691161790556040519283527f8b84647ec667515d9ce59e74ab9bb64476ec404345ebb9dfc3ea275bb6d8ee9b60203394a480f35b6040513d87823e3d90fd5b9091506020813d602011610d77575b81610d6360209383611097565b81010312610d7357519038610c40565b8380fd5b3d9150610d56565b6040513d86823e3d90fd5b60405162461bcd60e51b815260206004820152601660248201527514995cd85b194e88185b1c9958591e481b1a5cdd195960521b6044820152606490fd5b60405162461bcd60e51b815260206004820152601460248201527314995cd85b194e881b9bdd08185c1c1c9bdd995960621b6044820152606490fd5b5060405163020604bf60e21b815260048101829052602081602481865afa908115610d3c578591610e41575b506001600160a01b03163014610bf8565b610e5a915060203d6020116108aa5761089c8183611097565b38610e30565b610e79915060203d6020116108e6576108d78183611097565b38610bf0565b60405162461bcd60e51b81526020600482015260116024820152702932b9b0b6329d103737ba1037bbb732b960791b6044820152606490fd5b610ed1915060203d6020116108aa5761089c8183611097565b38610bae565b60405162461bcd60e51b8152602060048201526015602482015274526573616c653a20696e76616c696420707269636560581b6044820152606490fd5b50600554821115610b6e565b50346101f85760203660031901126101f857600435808252600660205260408220600481018054610f5360ff82166110b9565b60028301546001600160a01b03163303610f9e5760ff1916905554604051918383527f8b84647ec667515d9ce59e74ab9bb64476ec404345ebb9dfc3ea275bb6d8ee9b60203394a480f35b60405162461bcd60e51b81526020600482015260126024820152712932b9b0b6329d103737ba1039b2b63632b960711b6044820152606490fd5b82346101f85760203660031901126101f857604090600435815260066020522061100182611065565b80548083526001820154602080850182905260028401546001600160a01b031660408087018290526003860154606080890182905260049097015460ff1615156080988901819052825196875293860194909452840152928201529182015260a090f35b60a0810190811067ffffffffffffffff82111761108157604052565b634e487b7160e01b600052604160045260246000fd5b90601f8019910116810190811067ffffffffffffffff82111761108157604052565b156110c057565b60405162461bcd60e51b815260206004820152601260248201527114995cd85b194e881b9bdd081b1a5cdd195960721b6044820152606490fd5b9081602091031261111957516001600160a01b03811681036111195790565b600080fd5b90816020910312611119575180151581036111195790565b90816020910312611119575160ff811681036111195790565b1561115657565b60405162461bcd60e51b815260206004820152601a60248201527f526573616c653a206576656e74206e6f74207570636f6d696e670000000000006044820152606490fd5b919082039182116111a857565b634e487b7160e01b600052601160045260246000fd5b3d156111f9573d9067ffffffffffffffff821161108157604051916111ed601f8201601f191660200184611097565b82523d6000602084013e565b60609056fea2646970667358221220743d1c36dd4942daaa1a66df23be18c2f198575c97526143bb8346fd895e635364736f6c634300081c0033",
  "linkReferences": {},
  "deployedLinkReferences": {}
}